:040000008031132810
:100008007E1480310B1E09280A2811288B1C0D2804
:100018000E2811280130F2008B107E100900803163
:100028001528F2017E10200080313728F030F000CA
:10003800700823008D05F130F000700821008D054F
:100048000D14F030F000700824008D05F130F00038
:10005800700822008D05EF30F000700823008C0531
:1000680021000C16080080311A2080312100151358
:100078000B130B168B17F2017203031D4428452836
:100088004B280830F100710822008D063F286300D4
:060098004028803113280E
:020000040001F9
:04000E00E43FFF3F8D
:00000001FF
