:08000000803102288731FD2F39
:100F5A0021009511073095049512C33020009500A1
:100F6A000B118B12080021009913190887392838A8
:100F7A009900033099041A1DC32FC42FC02F0800EB
:100F8A008731B82787318731E02787318731AD2705
:100F9A0087310B138B130B1DD32FD42FD02F08306F
:100FAA00F100710822008D06C330200095000B1154
:100FBA00D02F80310228F030F000700823008D0510
:100FCA00F130F000700821008D050D14F030F000AA
:100FDA00700824008D05F130F000700822008D059C
:100FEA00EF30F000700823008C0521000C16080071
:060FFA0020008731C52F25
:020000040001F9
:04000E00E43FFF3E8E
:00000001FF
