:0400000080314528DE
:100008007E1480312100911E0A280B281A2820000E
:10001800911E0F2810281A2823009D1C1428152823
:1000280016289D1019082000B10091122100111EF8
:100038001E281F28432823009E1E232824284328DF
:100048009E1C27282828242820003008860087019D
:100058000A300106031D31283228362823009E1253
:100068001D164128300886008701010823009A00E0
:100078000130F00070082000B007200011127E1037
:100088000900803147282030840000308500123074
:1000980081310F2180317E10200080315328323089
:1000A8008600003087001030F20000301E00F20B8E
:1000B8005A288131042180318031CA208031803131
:1000C800EC2080314C302000B2004530B300443081
:1000D800B4002030B5004430B6003530B7002030C9
:1000E800B8003030B9004630BA004630BB000A309C
:1000F800BC000B178B17B1012000310803198528A4
:10010800862880283530B7002030B8004F30B90035
:10011800B72822008D154E302000BA000A30BB00E7
:10012800BF28F730F200720822008D054630200003
:10013800BA004630BB000A30BC00BF28F730F200D6
:10014800720822008D0545302000B9005230BA00EF
:100158005230BB004F30BC005230BD002130BE00D1
:100168000A30BF00BF283108313A03198D28033AF5
:1001780003199528A2283230B000B10121001116C8
:1001880023001D129E16802880314528F030F1008A
:10019800710823008D05F130F100710821008D05EB
:1001A8000D14F030F100710824008D05F130F100D4
:1001B800710822008D05EF30F100710823008C05CD
:1001C80021000C168E17BF30F10071088E0508004B
:1001D80023009D131D131D121E139E121E121E15A1
:1001E8001F129F151F109C0122309B0020009112A6
:1001F800111221009116111223001D169D170800D7
:100208002100991378309904033099041A1E0D2996
:100218000E290A290800640080010131890B102980
:020228000034A0
:020000040001F9
:04000E00E43FFF3E8E
:00000001FF
