:08000000803102288731FD2F39
:100EEC002000911C7A2F7B2F762F91100800220066
:100EFC009813F33098051810E03099059816981748
:100F0C00080020001C1103309C0487309C057A30AB
:100F1C009B009110210091100800210099131908D1
:100F2C00873928389900033099041A1D9E2F9F2F5A
:100F3C009B2F0800F030F000700823008D05F13075
:100F4C00F000700821008D050D14F030F0007008D1
:100F5C0024008D05F130F000700822008D05EF3073
:100F6C00F000700823008C0521000C160800873156
:100F7C00932787318731A027873187317D278731A8
:100F8C008731872787310B138B1320001C15220008
:100F9C008D15F201220019087206E03972069900CB
:100FAC008731762787310130F1007108F2071F3045
:100FBC007202031CE22FE32FD02FF730F1007108DF
:100FCC0022008D051F30F200220019087206E0394C
:100FDC00720699008731762787310130F202720848
:100FEC00031DF92FFA2FEA2FCD2F80310228200074
:040FFC008731BD2F4D
:020000040001F9
:04000E00E43FFF3E8E
:00000001FF
