:04000000803114280F
:100008007E1480318B1D09280A2812282700161C07
:100018000E280F2812280130F20016107E10090051
:1000280080311628F2017E10200080313828F03007
:10003800F000700823008D05F130F00070082100F1
:100048008D050D14F030F000700824008D05F13096
:10005800F000700822008D05EF30F00070082300D2
:100068008C0521000C160800803154208031803125
:100078001B2080318031612080318B150B138B1749
:10008800F2017208031949284A2850280830F1005B
:10009800710822008D064428630045288031142801
:1000A80021009913190887392838990003309904D1
:1000B8001A1D5F2860285C280800270015141610F0
:0200C80008002E
:020000040001F9
:04000E00E43FFF3E8E
:00000001FF
