:04000000803116280D
:100008007E1480318B1E09280A2814280B1D0D2800
:100018000E2814280130F200C330200095000B117F
:100028007E10090080311828F2017E1020008031EE
:100038003A28F030F000700823008D05F130F00008
:10004800700821008D050D14F030F00070082400B0
:100058008D05F130F000700822008D05EF30F000BA
:10006800700823008C0521000C16080080315320ED
:10007800803180311D2080318031602080310B1724
:100088008B17F2017203031D4A284B2846280830B3
:10009800F100710822008D064528803116282100BC
:1000A80099131908873928389900033099041A1DBB
:1000B8005E285F285B280800210095110730950409
:0E00C8009512C330200095000B118B16080016
:020000040001F9
:04000E00E43FFF3E8E
:00000001FF
