:08000000803102288731FD2F39
:100E9A002100991378309904033099041A1E562FA9
:100EAA00572F532F0800F030F000700823008D05EB
:100EBA00F130F000700821008D050D14F030F000BB
:100ECA00700824008D05F130F000700822008D05AD
:100EDA00EF30F000700823008C0521000C16FB305F
:100EEA00F0007008230090050800210010153E301C
:100EFA0020009B0026001E08F0390C389E001F3087
:100F0A009C001E08CF3920389E00FC3025009F0522
:100F1A002000911003309C041C15911C952F962FCC
:100F2A00922FFB30F00070082100900508008731ED
:100F3A004D27873187315827873187317A2787317B
:100F4A000B138B13F20120000D18AC2FAD2FA82F15
:100F5A000D1CB02FB12FAD2F21001015DE2F26004A
:100F6A009C01CF309E05F201F20AEF2F0F302600C6
:100F7A009C0030309E040230F200EF2F1F30260012
:100F8A009C001E08CF3920389E000330F200EF2F54
:100F9A002F3026009C001E08CF3910389E000430DE
:100FAA00F200EF2F3F3026009C00CF309E05F20161
:100FBA00EF2F7208003A0319B42F013A0319BB2F15
:100FCA00033A0319C32F013A0319CD2F073A03191C
:100FDA00D72FB42F20009110911CF42FF52FF12F49
:100FEA00FB30F100710821009005A82F80310228FA
:060FFA00200087319C2F4E
:020000040001F9
:04000E00E43FFF3E8E
:00000001FF
