:0400000080316928BA
:100008007E1480312100911C0A280B281528200015
:10001800911C0F281028152803302200E300200027
:1000280091102100111E19281A28422823009E1E0B
:100038001E281F2842289E1C222823281F28220009
:1000480064088600013087000A300106031D2D2848
:100058002E28342823009E1201302200E300402875
:100068006408860001308700010823009A000130E7
:10007800F00070082200E407200011122100111F6F
:100088004628472867282000111F4B284C28672836
:1000980021001C08F000F10170082200E10071083D
:1000A800E2000830E135E20D890B562821001B08D3
:1000B800F000F10170082200E1047108E204023046
:1000C800E300200011137E10090080316B28FA012B
:1000D800FB012100ED01EE01EF0149308400013000
:1000E80085001D308731F9278031A0308400013028
:1000F800850050308731F92780317E1020009731F4
:10010800242F2100B800CB012308CF002208CE00FD
:100118002108CD002008CC004F082000C300210092
:100128004E082000C20021004D082000C100210017
:100138004C082000C0000030C7000030C600003066
:10014800C5000030C4008831142080310318AD2860
:10015800AE28C5282100CB01CB0A4F08F5004E0870
:10016800F4004D08F3004C08F20091315921803118
:1001780075082100CF007408CE007308CD007208FE
:10018800CC002100D001D1016E08C0006D08BF006D
:100198004B080319D028D128E1284B08031DD5287E
:1001A800D628DB282B30AF000030B000DF282D30F8
:1001B800AF000030B0002F08CB004F08F5004E0804
:1001C800F4004D08F3004C08F200953126258031E3
:1001D80072037304031DF128F228232921004B0818
:1001E8000319F728F82804294B082300A000FF303A
:1001F8002100BF07FF30C03D0130D0000030D100E2
:100208002230F2009830F3005008A03E9131C0210E
:100218008031FD302100BF07FF30C03DA0302000F5
:10022800A700210040082000A90021003F08200065
:10023800A800210038089231CA228031E62E210018
:100248004F08F5004E08F4004D08F3004C08F20082
:1002580095312625803172087304031D3429352908
:10026800662921004B0803193A293B2947294B08DD
:100278002300A000FF302100BF07FF30C03D013040
:10028800D0000030D1002630F2009830F30050083A
:10029800A03E9131C0218031FD302100BF07FF30E1
:1002A800C03DA0302000A700210040082000A90080
:1002B80021003F082000A800210038089231CA22F6
:1002C8008031E62E3F302100D5008030D400003048
:1002D800D3000030D200B901BA014F08F5004E082A
:1002E800F4004D08F3004C08F2000030F90000302B
:1002F800F8000030F7000030F6009231FA22803121
:10030800031887298829C42A962921003E08D50080
:100318003D08D4003C08D3003B08D2000130B9079F
:100328000030BA3D41302000A9002030A80000303C
:10033800A7000030A600210055082000AD002100CC
:1003480054082000AC00210053082000AB00210015
:1003580052082000AA008D31C525803120002908C7
:100368002100BE00200028082100BD002000270829
:100378002100BC00200026082100BB003B084C02DD
:10038800A5003C084D3BA6003D084E3BA7003E0893
:100398004F3BA8002808F5002708F4002608F300BA
:1003A8002508F20091317D218031F51BE929750876
:1003B800031DEA297408031DEA297308031DEA29A5
:1003C80002307202031CE929EA29892921003E0822
:1003D8002000C30021003D082000C20021003C0885
:1003E8002000C10021003B082000C00021004F0868
:1003F8002000C70021004E082000C60021004D083B
:100408002000C50021004C082000C40088311420B9
:100418008031031C102A112A8929210052084C0214
:10042800A50053084D3BA60054084E3BA7005508AD
:100438004F3BA8002808F5002708F4002608F30019
:100448002508F20091317D218031F51B3A2A750883
:10045800031D392A7408031D392A7308031D392A14
:10046800023072020318392A3A2A9D2A21005508B7
:10047800CF005408CE005308CD005208CC00C42A3F
:1004880041302000C3002030C2000030C1000030DD
:10049800C000210055082000C70021005408200092
:1004A800C600210053082000C50021005208200082
:1004B800C4008A3113228031200043082100D5006E
:1004C800200042082100D400200041082100D30068
:1004D800200040082100D200FF30B907FF30BA3DA4
:1004E80052084C02A50053084D3BA60054084E3B49
:1004F800A70055084F3BA8002808F5002708F40076
:100508002608F3002508F20091317D218031F51B82
:100518009C2A7508031D9B2A7408031D9B2A7308CF
:10052800031D9B2A0230720203189B2A9C2A9D2ACB
:100538003A2A21004F082000C30021004E0820005D
:10054800C20021004D082000C10021004C082000F5
:10055800C000210055082000C700210054082000D1
:10056800C600210053082000C500210052082000C1
:10057800C400883114208031031CC32AC42A442AA9
:1005880021002408B2003208B300FB1BCC2ACD2A74
:10059800D22A7B08AC007A08AB00D62A0630AB001A
:1005A8000030AC002C08B7002B08B6000130B607A5
:1005B8000030B73D66303306031DE32AE42AFC2ADF
:1005C800BA1FE72AE82AF22A3F30D5008030D40043
:1005D8000030D3000030D200B901BA0167303206CA
:1005E8000319F72AF82AFC2A3908B6073A08B73D4A
:1005F800C901CA014F08C4004E08C3004D08C20013
:100608004C08C1005508BE005408BD005308BC0082
:100618005208BB00DC2B210055082000C300210034
:1006280054082000C200210053082000C100210006
:1006380052082000C000210044082000C700210003
:1006480043082000C600210042082000C500210000
:1006580041082000C4008A31132280312000430859
:10066800DD004208DC004108DB004008DA00863182
:10067800E726803120005D082100C80020005C08C2
:100688002100C70020005B082100C60020005A088E
:100698002100C5004808F5004708F4004608F300A3
:1006A8004508F2009431B524803173082100B50063
:1006B8007208B40055082000AD002100540820003D
:1006C800AC00210053082000AB0021005208200094
:1006D800AA00210048082000A9002100470820009E
:1006E800A800210046082000A70021004508200096
:1006F800A6008D31C525803120002908C3002808AF
:10070800C2002708C1002608C000210044082000B4
:10071800C700210043082000C6002100420820002D
:10072800C500210041082000C4009131FA21803120
:10073800200043082100C400200042082100C30013
:10074800200041082100C200200040082100C1000B
:1007580041302000C3002030C2000030C10000300A
:10076800C000210055082000C700210054082000BF
:10077800C600210053082000C500210052082000AF
:10078800C4008A3113228031200043082100D5009B
:10079800200042082100D400200041082100D30095
:1007A800200040082100D2000130C9070030CA3DAE
:1007B8004A08803AA5003708803A2502031DE62B2F
:1007C80036084902031CE92BEA2B0F2B4030200086
:1007D800A900A030A8000030A7000030A600210022
:1007E80055082000AD00210054082000AC0021006D
:1007F80053082000AB00210052082000AA008D31C8
:10080800C5258031200029082100C80020002808BB
:100818002100C700200027082100C6002000260864
:100828002100C50044082000C3002100430820001F
:10083800C200210042082000C10021004108200018
:10084800C000210048082000C700210047082000F8
:10085800C600210046082000C500210045082000E8
:10086800C40088311420803103183B2C3C2C462CC2
:1008780000302100C8000030C7000030C60000303A
:10088800C5006B2C21004408F5004308F400420819
:10089800F3004108F2004808F9004708F800460844
:1008A800F7004508F6009231FA228031031C5D2CCE
:1008B8005E2C6B2C21003418622C632C6B2C0030BE
:1008C800C8000030C7000030C6000030C500210055
:1008D8004808F5004708F4004608F3004508F20008
:1008E8004F08F9004E08F8004D08F7004C08F600CC
:1008F8008B31BD23803175082100C4007408C30002
:100908007308C2007208C10044082000C300210017
:1009180043082000C200210042082000C100210035
:1009280041082000C0004130A9002030A800003054
:10093800A7000030A60021003E082000AD002100DD
:100948003D082000AC0021003C082000AB0021003D
:100958003B082000AA008D31C525803120002908D8
:10096800C7002808C6002708C5002608C400883123
:1009780014208031031CC12CC22CFD2C0130210015
:10098800B9070030BA3D41302000A9002030A80046
:100998000030A7000030A60021003E082000AD006E
:1009A80021003D082000AC0021003C082000AB00DD
:1009B80021003B082000AA008D31C5258031200088
:1009C80029082100BE00200028082100BD002000C1
:1009D80027082100BC00200026082100BB00663043
:1009E8003306031DF82CF92CFD2C0130B607003016
:1009F800B73D21003E08D5003D08D4003C08D3008F
:100A08003B08D2003A08AA003908A900B101AD0193
:100A1800AE01C901CA01452E210055082000C300B6
:100A2800210054082000C200210053082000C10002
:100A3800210052082000C000210044082000C700FF
:100A4800210043082000C600210042082000C500FC
:100A5800210041082000C4008A311322803120007F
:100A68004308DD004208DC004108DB004008DA00EA
:100A78008631E726803120005D082100C80020006B
:100A88005C082100C70020005B082100C600200088
:100A98005A082100C5004808F5004708F400460830
:100AA800F3004508F2009431B52480317308803A88
:100AB8002100A50080302502031D642D0A30720232
:100AC8000318672D682D7A2D21004808F50047087E
:100AD800F4004608F3004508F2009431B52480314B
:100AE80073082100B5007208B4007F2D0930210079
:100AF800B4000030B5003108031D832D842DAD2DC1
:100B0800AA1F872D882DAD2D5008A03E86000130E4
:100B180087002E3081000130D0070030D13DFF30F2
:100B2800BF07FF30C03DB101B10AAD2D5008A03E4E
:100B3800860001308700303081000130D007003056
:100B4800D13DFF30BF07FF30C03DFF30AD07FF305C
:100B5800AE3D2D082E04031DB22DB32D9A2D50083D
:100B6800A03E8600013087003408303E8100013005
:100B7800D0070030D13DFF30BF07FF30C03D5508DA
:100B88002000AD00210054082000AC0021005308CB
:100B98002000AB00210052082000AA0021004808CC
:100BA8002000A900210047082000A80021004608CD
:100BB8002000A700210045082000A6008D31C5258A
:100BC800803120002908C3002808C2002708C10076
:100BD8002608C000210044082000C700210043085F
:100BE8002000C600210042082000C500210041085D
:100BF8002000C4009131FA218031200043082100EF
:100C0800C400200042082100C30020004108210040
:100C1800C200200040082100C10041302000C3006C
:100C28002030C2000030C1000030C000210055084B
:100C38002000C700210054082000C60021005308E6
:100C48002000C500210052082000C4008A31132268
:100C58008031200043082100D500200042082100EF
:100C6800D400200041082100D300200040082100C2
:100C7800D200FF30A907FF30AA3D0130C907003074
:100C8800CA3D4A08803AA5003708803A2502031D64
:100C98004F2E360849020318522E532E612E21007A
:100CA8005108803AA50080302502031D5D2E4B3087
:100CB8005002031C602E612E102D4F302100C900F8
:100CC8000030CA004908A03E860001308700810133
:100CD800A030F2005108F4005008F300A030A5003D
:100CE8005008250249078731D22780312100500852
:100CF8004902D00051084A3BD1004B08031D852EFC
:100D0800872E0130882E0030A500A6012508C900CD
:100D18002608CA00EF1C912E922EC02EA32EFF305B
:100D28002100D007FF30D13D5008A03E8600013099
:100D3800870030308100FF30BF07FF30C03D4A08D0
:100D4800803AA5004008803A2502031DAD2E3F08D1
:100D580049020318B02EB12EC02E21004A08803A4D
:100D6800A5005108803A2502031DBC2E50084902EF
:100D7800031CBF2EC02E932E21004B080319C52E2D
:100D8800C62ED12EFF30D007FF30D13D5008A03EEF
:100D98008600013087004B0881004908BF024A08D5
:100DA800C03B5008A03E2000A700210040082000BA
:100DB800A90021003F082000A8002100380892312E
:100DC800CA228031080022005C082000ED002200C1
:100DD8005B082000EC0022005A082000EB002200EB
:100DE80059082000EA005D08ED005C08EC005B088B
:100DF800EB005A08EA006A08DE006B08DF006C089E
:100E0800E0006D08E1001730E136E00CDF0CDE0C85
:100E1800890B082FFF305E05E20000305F05E30014
:100E28006208813EE800FF30633DE9006908803AC6
:100E3800DE0080305E02031D232F17306802031C7A
:100E4800262F272F282FD12F2000E91B2C2F2D2FBD
:100E58008A2FFF30DE00FF30DF007F30E0000030F7
:100E6800E100680A3B2FE137E00CDF0CDE0C890B50
:100E7800372F6108E7006008E6005F08E5005E08B4
:100E8800E4006A086405DE006B086505DF006C088D
:100E98006605E0006D086705E100610860045F040D
:100EA8005E04031D582F592F5A2F272F6A08DE007A
:100EB8006B08DF006C08E0006D08E1001F30E136C8
:100EC800E00CDF0CDE0C890B632F610860045F0403
:100ED8005E040319702F712F792F6408EA076508DB
:100EE800EB3D6608EC3D6708ED3D6409DE006509E9
:100EF800DF006609E0006709E1005E08EA055F08AF
:100F0800EB056008EC056108ED05C92F6A08DE00ED
:100F18006B08DF006C08E0006D08E1001F30E13667
:100F2800E00CDF0CDE0C890B932F610860045F0472
:100F38005E04031DA02FA12FAA2F0030ED00003062
:100F4800EC000030EB000030EA00C92F6A08DE0030
:100F58006B08DF006C08E0006D08E1000130DE3549
:100F6800DF0DE00DE10D890BB32F610860045F040C
:100F78005E040319C02FC12FC92FBF30ED00803088
:100F8800EC000030EB000030EA006D08DD006C0872
:100F9800DC006B08DB006A08DA000800F70072085A
:100FA800F9007708F800EC2F7908860001308700EF
:100FB8000108F6000130F5007508F9077808860081
:100FC80001308700760881000130F5007508F807C0
:100FD8000130F3020030F43B730A031DF72F740A43
:100FE800031DF72FF82FD82F080064008001013166
:080FF800890BFA2F00340800F8
:101004002000A11B06280728082813282009A2006D
:101014002109A300A20A0319A30A2208A000230895
:10102400A1000800003020004005C8000030410540
:10103400C90080304205CA007F304305CB004B080D
:101044004A0449044804031D28282928312800306B
:10105400C3000030C2000030C1000030C0000030C6
:101064004405C80000304505C90080304605CA0063
:101074007F304705CB004B084A0449044804031D4C
:10108400442845284D280030C7000030C6000030F1
:10109400C5000030C400C31F5028512869280030FF
:1010A400C8000030C9000030CA008030CB004008BE
:1010B400C8024108C93B4208CA3B4308CB3B4B0822
:1010C400C3004A08C2004908C1004808C000C71F3D
:1010D4006C286D2885280030C8000030C900003015
:1010E400CA008030CB004408C8024508C93B460802
:1010F400CA3B4708CB3B4B08C7004A08C60049080F
:10110400C5004808C4008030C3068030C7064708BD
:101114004302031D972846084202031D97284508E9
:101124004102031D97284408400203189A289B286B
:101134009D2803109E28031408002100E0002000CD
:101144006E0886008701403F2100D600413FD7004A
:1011540056088400570885001200253A031DB32859
:10116400B428F82920006E08860087010130810721
:1011740041310318810A2100ED01EE010310003012
:1011840003180130EF00FF30FA00FF30FB00DA01F2
:10119400EB28EF1420006E088600870101308107D8
:1011A40041310318810AEB28DA01DA0AEB2820001E
:1011B4006E0886008701403F2100D600413FD700DA
:1011C40056088400570885000008303A0319CB28D4
:1011D400D62821005A080319F028F128D92820001C
:1011E4006E0886008701403F2100D600413FD700AA
:1011F400560884005708850012002E3A031D03295F
:101204000429172920006E08860087010130810710
:1012140041310318810A6F08F8006E089431532491
:1012240088317908FB007808FA0020006E088600EF
:101234008701403F2100E100413FE2006108840052
:10124400620885001200643A031929292A293429DD
:1012540061088400620885001200693A031D33297D
:101264003429602920006F088600013087000108B6
:1012740084000130850002308107003F2100DB003B
:10128400013FDC006108013ED6000030623DD7001A
:1012940020006E088600870121005608C03F5708C9
:1012A400C13F5C082000AF0021005B082000AE00B5
:1012B40021006008963150268831122A20006E08D9
:1012C40086008701403F2100E100413FE2006108C0
:1012D4008400620885000008DF007A290130E107F4
:1012E4000030E23D85296C30DF008529DF01852946
:1012F4005F084C3A031970292A3A031975290A3AE6
:101304000319702978296108840062088500120095
:10131400663A031D8E298F29EE29BA2920006F0809
:101324008600013087000108840001308500043004
:101334008107003F2100DB00013FDC00023FDD00AC
:10134400033FDE00C22920006F08860001308700B9
:10135400010884000130850004308107003F21002A
:10136400DB00013FDC00023FDD00033FDE00C22959
:101374005F084C3A0319A529203A03199029C22978
:101384006108013ED6000030623DD70020006E089F
:101394008600870121005608C03F5708C13FE52950
:1013A4005E08A3005D08A2005C08A1005B08A00021
:1013B40061088400620885000008A4006008803188
:1013C40085208831122A610884006208850000089B
:1013D400663A0319D229EE2920006E088600870197
:1013E4000130810741310318810A122A20006E0856
:1013F40086008701403F2100D600413FD7005608B0
:101404008400570885000008D800D9015808F20064
:101414005908F3006008F40093319C238831EE29C5
:101424000800200047088039D1004735D800C61F7E
:101434001C2A1D2A1E2A581458080319222A232A52
:10144400332A580A031D272A282A302A0030C700C5
:101454000030C6000030C5000030C400C617C70104
:101464003B2A0030C7000030C6000030C500003001
:10147400C40043088039C8004808D1064335D90060
:10148400C21F452A462A472A5914590803194B2AC8
:101494004C2A5C2A590A031D502A512A592A003021
:1014A400C3000030C2000030C1000030C000C217C9
:1014B400C301642A0030C3000030C2000030C10000
:1014C4000030C0004308420441044004031D6B2A59
:1014D4006C2A852A0030C7000030C6000030C500E1
:1014E4000030C4008030C6047F30C7045108C800EF
:1014F4004808C7044708C3004608C2004508C1009D
:101504004408C000BC2B5808031D892A8A2A932A40
:101514000030C3000030C2000030C1000030C00001
:10152400BC2B5808C800C9014908CB005908480217
:10153400CA00031CCB034A087F3ED20000304B3D57
:10154400D3004708D0004608CF004508CE00440821
:10155400CD000030C7000030C6000030C5000030A8
:10156400C4000030D7000030D6000030D500003071
:10157400D400D901FB2A59080319C12AC22ADC2A3A
:101584000130CD35CE0DCF0DD00D890BC32A0130DE
:10159400C435C50DC60DC70D890BCA2AD71FD32A5A
:1015A400D42AD52A44140130D435D50DD60DD70DFF
:1015B400890BD62A43085002031DEA2A42084F0227
:1015C400031DEA2A41084E02031DEA2A40084D027F
:1015D400031CED2AEE2AF72A57174008CD024108CA
:1015E400CE3B4208CF3B4308D03B0130C8004808FB
:1015F400D9071A305902031C002B012BBD2A5008AD
:101604004F044E044D040319082B092B222B5414A8
:10161400222B0130C435C50DC60DC70D890B0C2B0B
:10162400D71F152B162B172B44140130D435D50D89
:10163400D60DD70D890B182BFF30D207FF30D33DC1
:10164400C61F252B262B0B2BD901D71F2A2B2B2B5F
:10165400472BFF305405C800FF305505C900FF3043
:101664005605CA007F305705CB004B084A0449048D
:10167400480403193E2B3F2B422BD901D90A472B8F
:10168400441C452B462B472B3F2B590803194B2B46
:101694004C2B742B0130C4070030C53D0030C63DCF
:1016A4000030C73D471C572B582B742B4408C800E7
:1016B4004508C9004608CA004708CB000130CC00E1
:1016C400CB37CA0CC90CC80CCC0B622B4B08C70017
:1016D4004A08C6004908C5004808C4000130D207BA
:1016E4000030D33D5308803AC80080304802031DBF
:1016F4007D2BFF305202031C802B812B8E2BFF305D
:101704002000D2000030D3000030C7000030C600F3
:101714000030C5000030C40020005308803AC800DF
:1017240080304802031D982B0130520203189B2B72
:101734009C2BA82B2000D201D3010030C70000301D
:10174400C6000030C5000030C400D101200052089A
:10175400D800581CAE2BAF2BB12BC617B52B7F303E
:10176400C8004808C6055836C7005108C8004808CC
:10177400C7047C2A0800750880392000A800753544
:10178400AA00F41FC62BC72BC82B2A142A08031936
:10179400CC2BCD2BDD2B2A0A031DD12BD22BDA2BFC
:1017A4000030F5000030F4000030F3000030F200A7
:1017B400F417F501E52B0030F5000030F40000309B
:1017C400F3000030F20079088039A90029082806BE
:1017D4000319ED2BEE2BEF2B28177935A900F81FF1
:1017E400F42BF52BF62B291429080319FA2BFB2BC0
:1017F4000B2C290A031DFF2B002C082C0030F900A8
:101804000030F8000030F7000030F600F817F90156
:10181400132C0030F9000030F8000030F7000030DD
:10182400F6002A0829020318182C192C3F2C281F0B
:101834001C2C1D2C212C8030A0002008A8062A086E
:10184400AB002908AA002B08A9007208AB0076088F
:10185400F2002B08F6007308AB007708F3002B089E
:10186400F7007408AB007808F4002B08F80075083A
:10187400AB007908F5002B08F900AB012908A0009A
:10188400A1012108A3002A082002A200031CA3032B
:101894002308803AA40080302402031D532C1A30FC
:1018A4002202031C562C572C892C750874047304CB
:1018B4007204031D5E2C602C0130612C003020006A
:1018C400AB000030F5000030F4000030F3000030CD
:1018D400F2002908AA00902C2B1C712C722C762C57
:1018E4002B360138AB00782C0310AB0C721C7B2C0C
:1018F4007C2C7D2CAB170130A000F537F40CF30CD5
:10190400F20CA00B7F2C0130A0002008AA072000B5
:1019140029082A02031C8F2C902C6E2C281B932C34
:10192400942CCA2C2A08031D982C992CA22C003024
:10193400F5000030F4000030F3000030F200C42D54
:101944007608F2077708F33D7808F43D7908F53D09
:10195400751CAD2CAE2C562D2B1CB12CB22CB62CD8
:101964002B360138AB00B82C0310AB0C721CBB2C0B
:10197400BC2CBD2CAB170130A000F537F40CF30CD4
:10198400F20CA00BBF2C0130A0002008AA07562D92
:101994007508803AA0007908803A2002031DDC2CE7
:1019A40078087402031DDC2C77087302031DDC2CF9
:1019B400760872020318DF2CE02C182DFF30A000EB
:1019C400FF30A100FF30A200FF30A30072087602AE
:1019D400A4007308773BA5007408783BA60075083B
:1019E400793BA7002408A0072508A13D2608A23DAD
:1019F4002708A33D2308F5002208F4002108F3007A
:101A04002008F2008030A0002008A806AB09AB0A29
:101A14002B08031D0E2D0F2D202D0130F207003051
:101A2400F33D0030F43D0030F53D202D7608F20200
:101A34007708F33B7808F43B7908F53B75087404A0
:101A440073047204031D272D282D522D2B08031D0A
:101A54002C2D2D2D522D0030F5000030F4000030D7
:101A6400F3000030F200C42D0130F235F30DF40D13
:101A7400F50D890B372DAB1F402D412D422D7214CE
:101A84002B1C452D462D492D0314AB0D4B2D031056
:101A9400AB0D2A0803194F2D502D522D0130AA02E7
:101AA400F41F552D562D362DA901AB1F5A2D5B2D34
:101AB400692D2B087F390319602D612D642DA9012F
:101AC400A90A692D721C672D682D692D612D2908BD
:101AD40003196D2D6E2D9B2D0130F2070030F33D5F
:101AE4000030F43D0030F53D751C792D7A2D9B2D89
:101AF4007208A0007308A1007408A2007508A3006E
:101B04000130A400A337A20CA10CA00CA40B842DBB
:101B14002308F5002208F4002108F3002008F2004D
:101B24002A0A0319962D972D9B2D0130A000200819
:101B3400AA072A0A03199F2DA02DA52D2A08031DE3
:101B4400A42DA52DB32D0030F5000030F400003095
:101B5400F3000030F2002A08031DB12DB22DB32D7D
:101B6400A8012A1CB62DB72DB92DF417BD2D7F3031
:101B7400A0002008F4052A36F500A81FC22DC32DA5
:101B8400C42DF5170800200029088039B300293531
:101B9400B900A81FCE2DCF2DD02D39143908031923
:101BA400D42DD52DE42D390A031DD92DDA2DE22D9E
:101BB4000030A9000030A8000030A7000030A600C3
:101BC400A817EC2D0030A9000030A8000030A700B1
:101BD4000030A6002D088039AE002E08B3062D353E
:101BE400B400AC1FF62DF72DF82D34143408031966
:101BF400FC2DFD2D0C2E340A031D012E022E0A2E5F
:101C04000030AD000030AC000030AB000030AA0062
:101C1400AC17142E0030AD000030AC000030AB0027
:101C24000030AA0034080319182E192E1E2E390864
:101C3400031D1D2E1E2E272E0030A9000030A800E3
:101C44000030A7000030A600FF2F2608F2002C0861
:101C540092315C228D3173082000BF007208BE00EF
:101C64003E08AE00AF01B001B1013108B800300840
:101C7400B7002F08B6002E08B5003F08AE00AF012C
:101C8400B001B1013108BD003008BC002F08BB0011
:101C94002E08BA002708F2002B0892315C228D31FD
:101CA40073082000BF007208BE003E08AE00AF01FA
:101CB400B001B1012E08B5072F08B63D3008B73D75
:101CC4003108B83D3F08AE00AF01B001B1012E08A4
:101CD400BA072F08BB3D3008BC3D3108BD3D28087C
:101CE400F2002A0892315C228D3173082000BF0073
:101CF4007208BE003E08AE00AF01B001B1012E086B
:101D0400B5072F08B63D3008B73D3108B83D3F0848
:101D1400AE00AF01B001B1012E08BA072F08BB3DD8
:101D24003008BC3D3108BD3D0830B535B60DB70DA2
:101D3400B80D890B972E2708F2002A0892315C22ED
:101D44008D3173082000BF007208BE003E08B5073D
:101D54003F08B63D0030B73DB83D2608F2002B08D9
:101D640092315C228D3173082000BF007208BE00DE
:101D74003E08B5073F08B63D0030B73DB83D0830D2
:101D8400B535B60DB70DB80D890BC22E2608F20075
:101D94002A0892315C228D3173082000BF0072083A
:101DA400BE003E08B5073F08B63D0030B73DB83D1C
:101DB4002708F2002C0892315C228D317308200030
:101DC400BF007208BE003E08BA073F08BB3D0030A2
:101DD400BC3DBD3D2808F2002B0892315C228D31B8
:101DE40073082000BF007208BE003E08BA073F080F
:101DF400BB3D0030BC3DBD3D2808F2002C089231AB
:101E04005C228D3173082000BF007208BE003E08BA
:101E1400AE003F08AF00B001B1010830AE35AF0DE0
:101E2400B00DB10D890B102F2E08BA072F08BB3D3A
:101E34003008BC3D3108BD3D3508AE003608AF0062
:101E44003708B0003808B1001830B136B00CAF0C08
:101E5400AE0C890B272F2E08BA072F08BB3D30087C
:101E6400BC3D3108BD3D0830B535B60DB70DB80DD4
:101E7400890B362F39083407AE00AF01AF0D2E0899
:101E8400823EBE00FF302F3DBF005F2F0130BA35C8
:101E9400BB0DBC0DBD0D890B492FB81F522F532FFD
:101EA400542F3A140130B535B60DB70DB80D890B62
:101EB400552FFF30BE07FF30BF3DBC1F622F632F7D
:101EC400482FB401B81F672F682F842FFF303505C2
:101ED400AE00FF303605AF00FF303705B0007F306D
:101EE4003805B100310830042F042E0403197B2F68
:101EF4007C2F7F2FB401B40A842F3A1C822F832FA6
:101F0400842F7C2F34080319882F892FB12F013097
:101F1400BA070030BB3D0030BC3D0030BD3D3D1C28
:101F2400942F952FB12F3A08AE003B08AF003C0820
:101F3400B0003D08B1000130B200B137B00CAF0CB5
:101F4400AE0CB20B9F2F3108BD003008BC002F0827
:101F5400BB002E08BA000130BE070030BF3D3F0869
:101F6400803AAE0080302E02031DBA2FFF303E02AD
:101F7400031CBD2FBE2FC82F7F302000BD00803032
:101F8400BC000030BB000030BA00F32F20003F0833
:101F9400803AAE0080302E02031DD22F01303E0263
:101FA4000318D52FD62FE12F00302000BD000030BC
:101FB400BC000030BB000030BA00B301F32F200096
:101FC4003E08B900FF30BA05FF30BB057F30BC05C1
:101FD4000030BD05391CEF2FF02FF12FBC17393617
:101FE400BD003308AE002E08BD043D08A9003C081E
:0C1FF400A8003B08A7003A08A60008005F
:1022B200750874047304720403196029612963297F
:1022C2008030F506080020001C1103309C04783091
:1022D2009C04FF309B009110210091140800210002
:1022E20099131908873970389900033099041A1E16
:1022F2007B297C2978290800F51B802981298229DC
:1023020091297209F2007309F3007409F400750946
:10231200F500F20A0319F30A0319F40A0319F50A7C
:10232200080023009D131D131D121E139E121E1260
:102332001E151F129F151F109C0110309B002000BC
:10234200911211122100111223009D170800210081
:102352001D101D08833974389D009E171E088F3981
:1023620030389E001E11FC309E052200171697166B
:1023720021001D1420001113210011170800F7007D
:102382007708F6007608860001308700F60A73089F
:10239200F5007208F400F20A0319F30A74088400C3
:1023A200750885000008C03F8908031DD929DA296C
:1023B200C3290800F601F701721CE029E129E52989
:1023C2007408F6077508F73D0130F435F50D890BF1
:1023D200E6290130F336F20C890BEB2972087304FB
:1023E200031DF429F529DD297708F3007608F200A8
:1023F200080080302000C3064708F5004608F400B4
:102402004508F3004408F2004308F9004208F800C6
:102412004108F7004008F6008B31BD239131750861
:102422002000C3007408C2007308C1007208C00013
:1024320008002100E7006408E9006308E8002D2A8B
:10244200E8302000EE00210065082000EF002100A6
:10245200670888319F20923121006808840069084A
:1024620085001200031D362A372A212AE301E401DE
:1024720008002200A8002230A9002808AA00AC0106
:10248200AD01B301B40121082100E40022002008BB
:102492002100E3002930E5002A3092311A229231DC
:1024A20022002C0828072100EA006A088600013071
:1024B2008700810108002000A400A001A101720888
:1024C200F400F5017408A2007508A300241C6A2A0E
:1024D2006B2A6F2A2208A0072308A13D0130A235EA
:1024E200A30D890B702A0310A40C2408031D7A2A59
:1024F2007B2A672A2108F3002008F2000800F03046
:10250200F200720823008D05F130F20072082100FA
:102512008D050D14F030F200720824008D05F130A3
:10252200F200720822008D05EF30F20072082300DB
:102532008C0521000C1623000C1421008E17BF30CD
:10254200F20072088E0508002000A300A501A60172
:10255200BB2A2408A100A2012108F2002208F300EC
:102562002008F40093319C23923101302000A5070A
:102572000030A63D25082307A1002108860001306E
:1025820087000108A4002408031DC82AC92AAA2A10
:1025920008002000AD00A91FCF2AD02AD22AA80104
:1025A200A901AB01AC01E42A2030F2000030F300B3
:1025B20020002D08F40093319C2392310130200039
:1025C200AB070030AC3D2C08803AAA002908803ABB
:1025D2002A02031DEE2A28082B02031CF12AF22AE2
:1025E200D52A20002D08A00027089231A522923179
:1025F2000800003072052000A00000307305A10021
:1026020080307405A2007F307505A30023082204E0
:1026120021042004031D0E2B0F2B172B0030F50075
:102622000030F4000030F3000030F2000030760594
:10263200A00000307705A10080307805A2007F302D
:102642007905A3002308220421042004031D2A2B58
:102652002B2B332B0030F9000030F8000030F7004C
:102662000030F60079087506031D412B78087406C0
:10267200031D412B77087306031D412B7608720652
:102682000319442B452B472B0310482B0314080036
:10269200F801F51F4D2B4E2B552BF409F509F40AC1
:1026A2000319F50AF801F80AF31F582B592B5E2B70
:1026B200F209F309F20A0319F30A720873040319FF
:1026C200632B642B8D2BF701F70A702B0130F23547
:1026D200F30D890B682B0130F6007608F707F31F1C
:1026E200732B742B672B73087502031D7A2B7208E8
:1026F2007402031C7D2B7E2B822B7208F40273085A
:10270200F53B0130F336F20C890B832B0130F702D3
:10271200031D8C2B8D2B742B78080319912B922B74
:10272200972BF409F509F40A0319F50A7508F30061
:102732007408F200080074080319A02BA12BA62B21
:102742007408031DA52BA62BAB2B72088731FF271C
:102752009331F22B7408093E86000130870016007F
:1027620001040319B52BB62BD62B7408093E86003B
:1027720001308700403FF500413FF6007408023EF9
:10278200860001308700403FF700413FF80078089B
:10279200803AF9007608803A7902031DD22B750837
:1027A20077020318D52BD62BF22B74088600013042
:1027B20087007408023E840001308500000801078A
:1027C200F5007508860001308700720881007408E0
:1027D200023E860001308700013081074131031833
:1027E200810A08002000A101F31FF82BF92B002C0D
:1027F200F209F309F20A0319F30AA101A10AF51F6A
:10280200032C042C0D2CF409F509F40A0319F50A1A
:102812000130F6007608A106A201A3017208730432
:102822000319142C152C442CA001A00A212C0130D0
:10283200F235F30D890B192C0130F6007608A0074A
:10284200F31F242C252C182C0130A235A30D890B43
:10285200262C73087502031D302C72087402031CA7
:10286200332C342C392C7208F4027308F53B2214F1
:102872000130F336F20C890B3A2C0130A002031D11
:10288200432C442C252C21080319482C492C4E2C6E
:10289200A209A309A20A0319A30A2308F300220822
:1028A200F20008002000A600A401A5012608860067
:1028B2008701403FA000413FA10020088400210879
:1028C200850012002A3A031D672C682C9C2C2608CE
:1028D200860087010130810741310318810A780897
:1028E2008600013087000108840001308500023033
:1028F2008107003FA400013FA500B02C2308A000DF
:10290200A1012508F3002408F2000A30F400003087
:10291200F5009131DB219431200020087207A400D8
:102922002108733DA5002608860087010130810732
:1029320041310318810A260886008701403FA00022
:10294200413FA10020088400210885000008D03EF4
:10295200A3000A302302031CAF2CB02C7F2C2508C5
:10296200F9002408F80008000310740D750D20000A
:10297200A1002108031DBE2CBF2CC82C0030F5007D
:102982000030F4000030F3000030F200252D720810
:10299200F6007308F7007408F8007508F9001F3094
:1029A200F936F80CF70CF60C890BD12C7608A0003E
:1029B200F417FF30F205FF30F305FF30F405003065
:1029C200F5059630A102A11FE72CE82C002D210865
:1029D200803A973E0318EE2CEF2CF02CBF2C0130DE
:1029E200F536F40CF30CF20C890BF12C0130F600E5
:1029F2007608A107031DFE2CFF2CF02C152D20308C
:102A02002102031C052D062D102DBF2C0130F2359D
:102A1200F30DF40DF50D890B082D0130A1022108EB
:102A2200031D142D152D072D20080319192D1A2DFC
:102A3200252DF209F309F409F509F20A0319F30A3B
:102A42000319F40A0319F50A08002200600820009D
:102A5200AB0022005F082000AA0022005E082000CE
:102A6200A90022005D082000A8007508AB007408C8
:102A7200AA007308A9007208A8002808A000290863
:102A8200A1002A08A2002B08A3001730A336A20C2B
:102A9200A10CA00C890B472DFF302005A6000030A9
:102AA2002105A70026082704031D582D592D7A2D2C
:102AB2002808A0002908A1002A08A2002B08A300C8
:102AC2000130A035A10DA20DA30D890B622D2308A3
:102AD200220421042004031D6F2D702D752D023058
:102AE200F2000030F300A42D0330F2000030F300B6
:102AF200A42D260A2704031D7F2D802DA02D280832
:102B0200A0002908A1002A08A2002B08A30009306E
:102B1200A035A10DA20DA30D890B892D2308220436
:102B2200210420040319962D982D0130992D00308F
:102B3200A400A5012408F2002508F300A42D043006
:102B4200F2000030F30008002000A0002008031962
:102B5200AB2DAC2DC02DF51FAF2DB02DC02D7209A0
:102B6200A2007309A3007409A4007509A500A20AB2
:102B72000319A30A0319A40A0319A50AC82D750883
:102B8200A5007408A4007308A3007208A2007508C7
:102B9200740473047204031DCF2DD02DD92D00307F
:102BA200F5000030F4000030F3000030F2004F2E48
:102BB2009630A100E72D0130F6007608A10701301A
:102BC200A536A40CA30CA20C890BE12DFE30250521
:102BD200031DEC2DED2DDC2D012E0130F6007608C3
:102BE200A1070130A2070030A33D0030A43D003010
:102BF200A53D0130A536A40CA30CA20C890BFB2D1C
:102C0200FF302505031D062E072EEE2D112E013055
:102C1200A1020130A235A30DA40DA50D890B0B2E27
:102C2200A41B142E152E1B2E0230210203181A2E5D
:102C32001B2E082E21181E2E1F2E272EFF30A20516
:102C4200FF30A3057F30A405FF30A5050310A10CBA
:102C52002108F600F701F801F9011830F635F70DF1
:102C6200F80DF90D890B2F2E7608A2047708A3041C
:102C72007808A4047908A50420080319412E422EDD
:102C8200472EF51F452E462E472EA5172508F5007F
:102C92002408F4002308F3002208F20008002000B0
:102CA200B100AF1B552E572E0130582E0030B80000
:102CB200FB1B5C2E5D2E622EFD30B0003008210021
:102CC200EF05FB1F652E662E6C2E01302000B4002E
:102CD2000030B500712E7B082000B5007A08B400E0
:102CE20021006E082000B70021006D082000B60008
:102CF200380803197D2E7E2E922EFF30B607FF3044
:102D0200B73D3808031D862E872E8C2E2B30B2003D
:102D12000030B300902E2D30B2000030B3003208E4
:102D2200B8004F30B9000030BA002300EF01D22EB4
:102D3200FF302000B907FF30BA3D3908A03E8600B7
:102D4200013087000A30F2000030F3002F08F5004E
:102D52002E08F40093314923963173082000A10014
:102D62007208A00088310220963120002008303EEF
:102D72008100FF30B407FF30B53DFF30B607FF30AA
:102D8200B73D0A30F2000030F3002F08F5002E089C
:102D9200F4009331F323963173082000AF007208D8
:102DA200AE0020003A08803AB00080303002031DA5
:102DB200DC2E01303902031CDF2EE02E072F20000B
:102DC2002E082F04031DE62EE72E992E3508803A91
:102DD200B00080303002031DF02E0130340203189F
:102DE200F32EF42E992E20003708803AB00080305E
:102DF2003002031DFE2E01303602031C012F022F6A
:102E0200072F2100EF18062F072F992E20003808D0
:102E120003190C2F0D2F182FFF30B907FF30BA3DC1
:102E22003908A03E86000130870038088100390841
:102E3200A03EA7003708A9003608A8003108923141
:102E4200CA229631080035308600013087001030E2
:102E52002100EB0000301E00EB0B2C2F9131702172
:102E620097319231802297319131A8219731913156
:102E7200922197319131642197310B178B172000E2
:102E82001C152200E501E50AE301E42F03302200CC
:102E92006306031D4D2F4E2FE42F20001C1122002C
:102EA200E3010230E500E42F22008D15E101E20189
:102EB20021001D149D142200E501E42F22008D152E
:102EC20044302000C3007F30C200C030C100003057
:102ED200C0004030A900A030A8000030A700003098
:102EE200A60022006108F2006208F300F401F50175
:102EF20000309531A525973175082000AD00740882
:102F0200AC007308AB007208AA008D31C525973159
:102F120020002908C7002808C6002708C50026087F
:102F2200C4008A3113229731200043082200C800CE
:102F3200200042082200C700200041082200C600EB
:102F4200200040082200C5000030A0009830A100F7
:102F52006208A3006108A2004808A7004708A6006B
:102F62004608A5004508A400353092313A2297312F
:102F720035302200E400E5012100111623009E16DF
:102F820004302200E500E42F22006303031DCA2F50
:102F9200CB2FE42FF7302100EB006B0822008D05C8
:102FA200E30120001C152200E501E50AE42F63007D
:102FB200023022006306031DDF2FE02FE42FE3011E
:102FC2000330E500E42F65082100EB00EC016C08FA
:102FD200003A0319ED2F472F6B08003A0319D82F37
:102FE200013A0319472F033A0319552F013A0319DE
:102FF2005F2F073A0319C52F472F803169284134C3
:10300200443443345F34743465346D347034203462
:103012003D3420342534643420347C342034563416
:10302200743465346D34703420343D3420342534A6
:1030320030342E3432346634203456340D340A346B
:10304200003469346E34663400346E3461346E3464
:02305200003448
:020000040001F9
:04000E00E43FFF3E8E
:00000001FF
