:08000000803102288731FD2F39
:100F260022009A139A119A151A159B159A170800FA
:100F3600280017152000931CA12FA22F9D2F931078
:100F46002800171108002100991319088739583805
:100F56009900033099041A1EB12FB22FAE2F080044
:100F66002800171103309704170887391838970097
:100F7600FF3096002000931021009310080087315F
:100F8600A62787318731DF2787318731B327873116
:100F96008731932787310B138B1322009A141A106B
:100FA60087319B27873122009A101A1487319B2795
:100FB6008731D02F80310228F030F00070082300EE
:100FC6008D05F130F000700821008D050D14F0300C
:100FD600F000700824008D05F130F0007008220042
:100FE6008D0523008C120C1221008C120C1222008B
:0A0FF6009D11080020008731C22F72
:020000040001F9
:04000E00E43FFF3E8E
:00000001FF
