:04000000803115280E
:100008007E1480312100921E0A280B281328200014
:10001800921E0F28102813280130F20092127E1029
:10002800090080311728F2017E1020008031422813
:10003800F030F000700823008D05F130F0007008F2
:1000480021008D050D14F030F000700824008D0596
:10005800F130F000700822008D05EF30F0007008D4
:1000680023008C0521000C1623000C148C1521008C
:100078008E17BF30F00070088E050800803175209B
:10008800803180311C2080318031632080310B1712
:100098008B17F20172080319522853285F2822008F
:1000A8001518572858285D28F730F10071088D0574
:1000B8004D288D154D2863004E28803115282200C3
:1000C80091131112911211119110CF309205FC3039
:1000D800920592171217911720009212210092167A
:1000E80008002100991319088739703899000330DE
:0C00F80099041A1E802881287D28080029
:020000040001F9
:04000E00E43FFF3E8E
:00000001FF
