:040000008031202803
:100008007E1480312100911C0A280B281228200018
:10001800911C0F2810281228721491102100931D8A
:10002800162817281E282000931D1B281C281E2868
:10003800F21493117E10090080312228F2017E10FB
:100048002000803127288031A820803180316D2020
:1000580080318031B52080318031992080318031E4
:100068008A2080310B178B1720001C1528001715C4
:100078001E15F20172080319422843285E28721CD3
:100088004628472850280830F100710822008D06BC
:10009800FE30F1007108F205F21C532854283E285E
:1000A8000230F100710822008D06FD30F100710860
:1000B800F2053E282000931C622863283E2804305D
:1000C800F100710822008D06200093103E2880312F
:1000D8002028F030F000700823008D05F130F00082
:1000E800700821008D050D14F030F0007008240010
:1000F8008D05F130F000700822008D05EF30F0001A
:10010800700823008C0521000C16080028001E1119
:1001180003309E041E08873910389E00F4309D0075
:1001280020009311210093150800280017110330AF
:1001380097041708873908389700F430960020008C
:10014800931021009310080021009913190887398A
:1001580028389900033099041A1DB328B428B02808
:10016800080020001C1103309C0487309C05F430E3
:0A0178009B00911021009114080073
:020000040001F9
:04000E00E43FFF3E8E
:00000001FF
